{
  "contractName": "Counter",
  "abi": [
    {
      "inputs": [],
      "name": "getCount",
      "outputs": [
        {
          "internalType": "uint256",
          "name": "",
          "type": "uint256"
        }
      ],
      "stateMutability": "view",
      "type": "function",
      "constant": true
    },
    {
      "inputs": [],
      "name": "increment",
      "outputs": [],
      "stateMutability": "nonpayable",
      "type": "function"
    },
    {
      "inputs": [],
      "name": "decrement",
      "outputs": [],
      "stateMutability": "nonpayable",
      "type": "function"
    }
  ],
  "bytecode": "0x60806040526000805534801561001457600080fd5b5061029b806100246000396000f3fe608060405234801561001057600080fd5b50600436106100415760003560e01c80632baeceb714610046578063a87d942c14610050578063d09de08a1461006e575b600080fd5b61004e610078565b005b6100586100d7565b604051610065919061014d565b60405180910390f35b6100766100e0565b005b60008054116100bc576040517f08c379a00000000000000000000000000000000000000000000000000000000081526004016100b39061012d565b60405180910390fd5b60016000808282546100ce91906101cf565b92505081905550565b60008054905090565b60016000808282546100f29190610179565b92505081905550565b6000610108601a83610168565b91506101138261023c565b602082019050919050565b61012781610203565b82525050565b60006020820190508181036000830152610146816100fb565b9050919050565b6000602082019050610162600083018461011e565b92915050565b600082825260208201905092915050565b600061018482610203565b915061018f83610203565b9250827fffffffffffffffffffffffffffffffffffffffffffffffffffffffffffffffff038211156101c4576101c361020d565b5b828201905092915050565b60006101da82610203565b91506101e583610203565b9250828210156101f8576101f761020d565b5b828203905092915050565b6000819050919050565b7f4e487b7100000000000000000000000000000000000000000000000000000000600052601160045260246000fd5b7f436f756e7465722063616e6e6f74206265206e6567617469766500000000000060008201525056fea26469706673582212205d5cfa95c842f29c4e8e2b451d329365fc1d1c121febcb8b89beed6938bf5e6764736f6c63430008010033",
  "immutableReferences": {},
  "source": "// SPDX-License-Identifier: MIT\npragma solidity >=0.4.22 <0.9.0;\n\ncontract Counter {\n    uint256 private count = 0;\n\n    // Function to get the current count\n    function getCount() public view returns (uint256) {\n        return count;\n    }\n\n    // Function to increment the count\n    function increment() public {\n        count += 1;\n    }\n\n    function decrement() public {\n        require(count > 0, \"Counter cannot be negative\");\n        count -= 1;\n    }\n}\n",
  "sourcePath": "/Users/FabianFranz/Development/Projects/velpTec/Blockchain/d-app/contracts/Counter.sol",
  "compiler": {
    "name": "solc",
    "version": "0.8.1+commit.df193b15.Emscripten.clang"
  },
  "schemaVersion": "3.4.16",
  "updatedAt": "2024-02-16T10:25:29.958Z",
  "networkType": "ethereum",
  "devdoc": {
    "kind": "dev",
    "methods": {},
    "version": 1
  },
  "userdoc": {
    "kind": "user",
    "methods": {},
    "version": 1
  }
}